{
  "_format": "hh-sol-artifact-1",
  "contractName": "Game",
  "sourceName": "contracts/Game.sol",
  "abi": [
    {
      "inputs": [
        {
          "internalType": "uint256",
          "name": "_minBet",
          "type": "uint256"
        }
      ],
      "stateMutability": "nonpayable",
      "type": "constructor"
    },
    {
      "anonymous": false,
      "inputs": [
        {
          "indexed": false,
          "internalType": "uint256",
          "name": "gameId",
          "type": "uint256"
        },
        {
          "indexed": false,
          "internalType": "uint16",
          "name": "score",
          "type": "uint16"
        },
        {
          "indexed": false,
          "internalType": "address",
          "name": "addressChallenger",
          "type": "address"
        }
      ],
      "name": "CloseChallenge",
      "type": "event"
    },
    {
      "anonymous": false,
      "inputs": [
        {
          "indexed": false,
          "internalType": "uint256",
          "name": "gameId",
          "type": "uint256"
        },
        {
          "indexed": false,
          "internalType": "uint256",
          "name": "betSize",
          "type": "uint256"
        },
        {
          "indexed": false,
          "internalType": "uint16",
          "name": "score",
          "type": "uint16"
        }
      ],
      "name": "OpenGame",
      "type": "event"
    },
    {
      "anonymous": false,
      "inputs": [
        {
          "indexed": true,
          "internalType": "address",
          "name": "previousOwner",
          "type": "address"
        },
        {
          "indexed": true,
          "internalType": "address",
          "name": "newOwner",
          "type": "address"
        }
      ],
      "name": "OwnershipTransferred",
      "type": "event"
    },
    {
      "inputs": [
        {
          "internalType": "address",
          "name": "",
          "type": "address"
        }
      ],
      "name": "balances",
      "outputs": [
        {
          "internalType": "uint256",
          "name": "",
          "type": "uint256"
        }
      ],
      "stateMutability": "view",
      "type": "function"
    },
    {
      "inputs": [
        {
          "internalType": "uint256",
          "name": "_gameId",
          "type": "uint256"
        },
        {
          "internalType": "uint16",
          "name": "_score",
          "type": "uint16"
        },
        {
          "internalType": "address",
          "name": "_address",
          "type": "address"
        }
      ],
      "name": "closeChallenge",
      "outputs": [],
      "stateMutability": "nonpayable",
      "type": "function"
    },
    {
      "inputs": [],
      "name": "createGame",
      "outputs": [
        {
          "internalType": "uint256",
          "name": "",
          "type": "uint256"
        }
      ],
      "stateMutability": "payable",
      "type": "function"
    },
    {
      "inputs": [
        {
          "internalType": "uint256",
          "name": "",
          "type": "uint256"
        }
      ],
      "name": "games",
      "outputs": [
        {
          "internalType": "uint256",
          "name": "gameId",
          "type": "uint256"
        },
        {
          "internalType": "uint256",
          "name": "betSize",
          "type": "uint256"
        },
        {
          "internalType": "uint16",
          "name": "score",
          "type": "uint16"
        },
        {
          "internalType": "address",
          "name": "addressSetter",
          "type": "address"
        },
        {
          "internalType": "address",
          "name": "addressChallenger",
          "type": "address"
        }
      ],
      "stateMutability": "view",
      "type": "function"
    },
    {
      "inputs": [],
      "name": "minBet",
      "outputs": [
        {
          "internalType": "uint256",
          "name": "",
          "type": "uint256"
        }
      ],
      "stateMutability": "view",
      "type": "function"
    },
    {
      "inputs": [],
      "name": "owner",
      "outputs": [
        {
          "internalType": "address",
          "name": "",
          "type": "address"
        }
      ],
      "stateMutability": "view",
      "type": "function"
    },
    {
      "inputs": [],
      "name": "ownerAddress",
      "outputs": [
        {
          "internalType": "address",
          "name": "",
          "type": "address"
        }
      ],
      "stateMutability": "view",
      "type": "function"
    },
    {
      "inputs": [
        {
          "internalType": "uint256",
          "name": "_amount",
          "type": "uint256"
        }
      ],
      "name": "prizeWithdraw",
      "outputs": [],
      "stateMutability": "nonpayable",
      "type": "function"
    },
    {
      "inputs": [],
      "name": "renounceOwnership",
      "outputs": [],
      "stateMutability": "nonpayable",
      "type": "function"
    },
    {
      "inputs": [
        {
          "internalType": "uint256",
          "name": "_gameId",
          "type": "uint256"
        },
        {
          "internalType": "uint16",
          "name": "_score",
          "type": "uint16"
        },
        {
          "internalType": "address",
          "name": "_address",
          "type": "address"
        }
      ],
      "name": "setGameScore",
      "outputs": [],
      "stateMutability": "nonpayable",
      "type": "function"
    },
    {
      "inputs": [
        {
          "internalType": "uint256",
          "name": "_gameId",
          "type": "uint256"
        }
      ],
      "name": "startChallenge",
      "outputs": [],
      "stateMutability": "payable",
      "type": "function"
    },
    {
      "inputs": [
        {
          "internalType": "address",
          "name": "newOwner",
          "type": "address"
        }
      ],
      "name": "transferOwnership",
      "outputs": [],
      "stateMutability": "nonpayable",
      "type": "function"
    }
  ],
  "bytecode": "0x608060405234801561001057600080fd5b50604051610e26380380610e2683398101604081905261002f916100a2565b61003833610052565b600155600280546001600160a01b031916331790556100bb565b600080546001600160a01b038381166001600160a01b0319831681178455604051919092169283917f8be0079c531659141344cd1fd0a4f28419497f9722a3daafe3b4186f6b6457e09190a35050565b6000602082840312156100b457600080fd5b5051919050565b610d5c806100ca6000396000f3fe6080604052600436106100c75760003560e01c806378c02daa116100745780639619367d1161004e5780639619367d14610265578063dcf8ebd61461027b578063f2fde38b1461029b57600080fd5b806378c02daa146101f35780638da5cb5b146102135780638f84aa091461024557600080fd5b80636ad4e87a116100a55780636ad4e87a146101c3578063715018a6146101d65780637255d729146101eb57600080fd5b8063117a5b90146100cc57806327e235e3146101665780633cc121e6146101a1575b600080fd5b3480156100d857600080fd5b506101276100e7366004610c0f565b60056020526000908152604090208054600182015460028301546003909301549192909161ffff8216916001600160a01b03620100009091048116911685565b60408051958652602086019490945261ffff909216928401929092526001600160a01b03918216606084015216608082015260a0015b60405180910390f35b34801561017257600080fd5b50610193610181366004610c44565b60036020526000908152604090205481565b60405190815260200161015d565b3480156101ad57600080fd5b506101c16101bc366004610c0f565b6102bb565b005b6101c16101d1366004610c0f565b6103ce565b3480156101e257600080fd5b506101c161056a565b61019361057e565b3480156101ff57600080fd5b506101c161020e366004610c66565b6106b9565b34801561021f57600080fd5b506000546001600160a01b03165b6040516001600160a01b03909116815260200161015d565b34801561025157600080fd5b5060025461022d906001600160a01b031681565b34801561027157600080fd5b5061019360015481565b34801561028757600080fd5b506101c1610296366004610c66565b610842565b3480156102a757600080fd5b506101c16102b6366004610c44565b610ad5565b3360009081526003602052604090205481111561031f5760405162461bcd60e51b815260206004820152601260248201527f4e6f7420656e6f7567682062616c616e6365000000000000000000000000000060448201526064015b60405180910390fd5b336000908152600360205260408120805483929061033e908490610cc1565b909155503390506108fc6014610355846013610cda565b61035f9190610cf1565b6040518115909202916000818181858888f19350505050158015610387573d6000803e3d6000fd5b506002546001600160a01b03166108fc6103a2601484610cf1565b6040518115909202916000818181858888f193505050501580156103ca573d6000803e3d6000fd5b5050565b600081815260056020908152604091829020825160a08101845281548152600182015492810192909252600281015461ffff8116938301939093526001600160a01b036201000090930483166060830152600301549091166080820181905215801561044257506000816040015161ffff16115b61048e5760405162461bcd60e51b815260206004820152601160248201527f67616d65206973206e6f74206f70656e210000000000000000000000000000006044820152606401610316565b806020015134146104e15760405162461bcd60e51b815260206004820152601960248201527f596f7520646964206e6f74206d617463682074686520626574000000000000006044820152606401610316565b336001600160a01b031681606001516001600160a01b0316036105465760405162461bcd60e51b815260206004820152601e60248201527f596f752063616e6e6f74206368616c6c656e676520796f757273656c662100006044820152606401610316565b50600090815260056020526040902060030180546001600160a01b03191633179055565b610572610b65565b61057c6000610bbf565b565b60006001543410156105fa576040805162461bcd60e51b81526020600482015260248101919091527f6e65656420746f2062657420736f6d65206d6f7265206d6f6e6579206d79206660448201527f7269656e642c206d696e696d756d2062657420697320302e30312065746865726064820152608401610316565b610608600480546001019055565b600061061360045490565b6040805160a081018252828152346020808301918252600083850181815233606086019081526080860183815288845260059094529590912093518455915160018401559051600283018054945161ffff90921675ffffffffffffffffffffffffffffffffffffffffffff1990951694909417620100006001600160a01b03928316021790935551600390910180546001600160a01b0319169190921617905592915050565b6002546001600160a01b031633146107005760405162461bcd60e51b815260206004820152600a6024820152696f6e6c794f776e65722160b01b6044820152606401610316565b6000838152600560205260409020600201546001600160a01b038281166201000090920416146107725760405162461bcd60e51b815260206004820152601e60248201527f496e636f7272656374206164647265737320666f722067616d652069642100006044820152606401610316565b60008381526005602052604090206002015461ffff16156107d55760405162461bcd60e51b815260206004820152601260248201527f53636f726520616c7265616479207365742100000000000000000000000000006044820152606401610316565b60008381526005602090815260409182902060028101805461ffff871661ffff1990911681179091556001909101548351878152928301528183015290517fc6cfa6f8e2c7d8e0b9e8650eb29cb6945653223151c56b65943468940708b7309181900360600190a1505050565b6002546001600160a01b031633146108895760405162461bcd60e51b815260206004820152600a6024820152696f6e6c794f776e65722160b01b6044820152606401610316565b6000838152600560205260409020600301546001600160a01b038281169116146108f55760405162461bcd60e51b815260206004820152601e60248201527f61646472657373206973206e6f7420746865206368616c6c656e6765722100006044820152606401610316565b600083815260056020908152604091829020825160a08101845281548152600182015492810192909252600281015461ffff8082169484018590526001600160a01b036201000090920482166060850152600390920154166080830152909190841611156109fa576000848152600560209081526040822082815560018101929092556002808301805475ffffffffffffffffffffffffffffffffffffffffffff19169055600390920180546001600160a01b03191690558201516109b991610cda565b6001600160a01b0383166000908152600360205260409020546109dc9190610d13565b6001600160a01b038316600090815260036020526040902055610a65565b60208082015160608301516001600160a01b031660009081526003909252604090912054610a289190610d13565b60608201516001600160a01b0316600090815260036020818152604080842094909455878352600590529190200180546001600160a01b03191690555b6000848152600560209081526040918290206002810154600390910154835188815261ffff909216928201929092526001600160a01b039091168183015290517fe978298f7ad3a7d8ff7a3de65c803ed0a9044075879c1f9d69bd964e9a27d3759181900360600190a150505050565b610add610b65565b6001600160a01b038116610b595760405162461bcd60e51b815260206004820152602660248201527f4f776e61626c653a206e6577206f776e657220697320746865207a65726f206160448201527f64647265737300000000000000000000000000000000000000000000000000006064820152608401610316565b610b6281610bbf565b50565b6000546001600160a01b0316331461057c5760405162461bcd60e51b815260206004820181905260248201527f4f776e61626c653a2063616c6c6572206973206e6f7420746865206f776e65726044820152606401610316565b600080546001600160a01b038381166001600160a01b0319831681178455604051919092169283917f8be0079c531659141344cd1fd0a4f28419497f9722a3daafe3b4186f6b6457e09190a35050565b600060208284031215610c2157600080fd5b5035919050565b80356001600160a01b0381168114610c3f57600080fd5b919050565b600060208284031215610c5657600080fd5b610c5f82610c28565b9392505050565b600080600060608486031215610c7b57600080fd5b83359250602084013561ffff81168114610c9457600080fd5b9150610ca260408501610c28565b90509250925092565b634e487b7160e01b600052601160045260246000fd5b81810381811115610cd457610cd4610cab565b92915050565b8082028115828204841417610cd457610cd4610cab565b600082610d0e57634e487b7160e01b600052601260045260246000fd5b500490565b80820180821115610cd457610cd4610cab56fea2646970667358221220d0ecba80bd1c67971ab41907de0e5eb59531f89b560898afe4b6883c49e3c1e164736f6c63430008110033",
  "linkReferences": {},
  "deployedLinkReferences": {}
}